S315080000000807002031020008C915000881140008F5
S315080000108D1500085B0600088F190008000000000F
S31508000020000000000000000000000000CD150008D8
S315080000305D06000800000000CB150008CF15000873
S315080000404B0200084B0200084B0200084B0200084E
S315080000504B0200084B0200084B0200084B0200083E
S315080000604B0200084B0200084B0200084B0200082E
S315080000704B0200084B0200084B0200084B0200081E
S315080000804B0200084B0200084B0200084B0200080E
S315080000904B0200084B0200084B0200084B020008FE
S315080000A04B0200084B0200084B0200084B020008EE
S315080000B07D1600084B0200084B0200084B02000898
S315080000C04B0200084B0200084B0200084B020008CE
S315080000D04B0200084B0200084B0200084B020008BE
S315080000E04B0200084B0200084B0200084B020008AE
S315080000F04B0200084B0200084B0200084B0200089E
S315080001004B0200084B0200084B0200084B0200088D
S315080001104B0200084B0200084B0200084B0200087D
S315080001204B0200084B0200084B0200084B0200086D
S315080001304B0200084B0200084B0200084B0200085D
S315080001404B0200084B0200084B0200084B0200084D
S315080001504B0200084B0200084B0200084B0200083D
S315080001604B0200084B0200084B0200084B0200082D
S315080001704B0200084B0200084B0200080000000072
S315080001804B0200084B02000800F002F800F041F8A4
S315080001900AA090E8000C82448344AAF10107DA45D4
S315080001A001D100F036F8AFF2090EBAE80F0013F0E5
S315080001B0010F18BFFB1A43F0010318474418000043
S315080001C064180000103A24BF78C878C1FAD85207D4
S315080001D024BF30C830C144BF04680C6070470000B3
S315080001E00023002400250026103A28BF78C1FBD832
S315080001F0520728BF30C148BF0B607047752900F009
S31508000200F780002070471FB501F0E8FB1FBD10B549
S3150800021010BD00F0E8F91146FFF7F5FF01F0C8FB3D
S3150800022000F006FA03B4FFF7F2FF03BC00F00EFA7B
S315080002300948804709480047FEE7FEE7FEE7FEE76C
S31508000240FEE7FEE7FEE7FEE7FEE7FEE704480549A8
S31508000250054A064B704700006D160008890100081C
S3150800026008010020080700200803002008030020D2
S3150800027053EA020C00F069802DE9F04B4FF00006B6
S31508000280002B1FBFB3FA83F503FA05F424FA05F623
S315080002905E4012BF1643B2FA82F502FA05F4C5F1BA
S315080002A020051EBF22FA05FC44EA0C04203556EA4E
S315080002B0044C4FEA144418BF641C4FF000084FF072
S315080002C00009904271EB030C39D3002919BFB1FA22
S315080002D081F701FA07F6B0FA80F700FA07F6C7F1D0
S315080002E020071EBF20FA07FC46EA0C062037B6FB95
S315080002F0F4FCA7EB0507103F07F01F0BCBF1200610
S315080003000CFA0BFB2CFA06F644BFB3460026202F40
S31508000310A4BF5E464FF0000B5BEA060C08BF4FF021
S31508000320010B19EB0B09ABFB027C48EB0608C01B5B
S3150800033006FB02CC0BFB03CC71EB0C01C1E70B46A9
S31508000340024641464846BDE8F08B13B54FF000001B
S315080003504FF00001AFF30080BDE81C407047000075
S315080003600FB41CB5074B06AA7B446946009005984E
S3150800037000F021F90020694600F030F91CBC5DF850
S3150800038014FB0000710200002DE9F0410E460446F8
S31508000390002020622046E168884730B3252805D02A
S315080003A0D4E901219047206A401CF2E7E16820461B
S315080003B000278847050018D0A5F14100192802D85A
S315080003C020354FF400673246294620462760FFF756
S315080003D015FF40B1012804D0F61D26F00706083699
S315080003E0D8E7361DD6E72846DAE7206ABDE8F08161
S315080003F02DE9F0410646002410687529314616A5F0
S3150800040010D0AFF30080002802DA404213A507E0B7
S3150800041031688A0701D512A502E0490704D511A556
S31508000420012401E0AFF3008000210A2206F1240727
S3150800043009E0B0FBF2FCB0FBF2F302FB1C00303023
S3150800044078541846491C0028F3D123462A463046D4
S31508000450BDE8F04100F051B8000000002D00000092
S315080004602B0000002000000010B5431C02E010F825
S31508000470011B71B18107FAD14FF0013202C88C1AFB
S315080004808C4314EAC211F9D0C01A0A0603D0C01E5A
S3150800049010BDC01A10BD0A0401D0801E10BD090285
S315080004A0FCD0401E10BD4FF0000200B5134694461E
S315080004B09646203922BFA0E80C50A0E80C50B1F1AE
S315080004C02001BFF4F7AF090728BFA0E80C5048BFC2
S315080004D00CC05DF804EB890028BF40F8042B08BF60
S315080004E0704748BF20F8022B11F0804F18BF00F85C
S315080004F0012B70477047704770472DE9F0470D4646
S3150800050099469246044600F124080168880604D5EF
S31508000510E06921F01001216000E00120A84201DD18
S31508000520471B00E00027A1697A1902EB0900081A9F
S31508000530A0612078C00602D42046AFF300800026CA
S3150800054008E0D4E901211AF806009047206A401C01
S31508000550761C20624E45F4DB2078C0060AD5204674
S31508000560AFF3008006E0D4E9012130209047206AE5
S31508000570401C2062381EA7F10107F4DC07E0D4E925
S31508000580012118F805009047206A401C2062281EA1
S31508000590A5F10105F3DC2046AFF3008020780006BC
S315080005A002D50220BDE8F0870120FBE701694A1C55
S315080005B002610878704700B58FB0CDE90131002196
S315080005C0059105497944CDE9031011466846FFF7B8
S315080005D0DBFE0FB000BD0000E5FFFFFF0A6802F86A
S315080005E0010B0A607047754600F02CF8AE46050008
S315080005F06946534620F00700854618B020B5FFF730
S3150800060025FEBDE820404FF000064FF000074FF0EA
S3150800061000084FF0000B21F00701AC46ACE8C00912
S31508000620ACE8C009ACE8C009ACE8C0098D4670471B
S3150800063010B50446AFF300802046BDE81040FFF72A
S31508000640F1BD000000487047A800002001491820A5
S31508000650ABBEFEE7260002007047FEE7704772B69B
S31508000660FEE7000070B5044600F00CF90546601C6C
S3150800067002D004480078044400F004F9401BA04264
S31508000680FAD370BD0C0000202DE9F84FDFF8BCA1A5
S315080006900022012503264FF00F090AF1040BAAF1DF
S315080006A0040E00BF0B6805FA02F42340A34270D17A
S315080006B00F7907F00307012F01D0022F16D187689B
S315080006C04FEA420806FA08FC27EA0C07D1F80CC0DC
S315080006D00CFA08FC4CEA070CC0F808C04768A743A0
S315080006E00C79C4F3001494403C4344600C79E44309
S315080006F0A4070AD0C4684FEA420C06FA0CF7BC43B2
S315080007008F6807FA0CF72743C7600C7904F00304CF
S31508000710022C12D1D40800EB840CDCF820405707D1
S31508000720FF0E09FA07F824EA0804D1F8108008FA37
S3150800073007F848EA0408CCF8208004684FEA420C17
S3150800074006FA0CF7BC430F7907F0030707FA0CF70C
S31508000750274307604C6814F4403F70D03C4C276828
S3150800076047F480472760246822F0030704F480448E
S315080007700094384C07EB040CDCF8084897074FEA56
S31508000780177809FA08F7BC43334FB84202D1002755
S3150800079024E054E0314FB84201D101271EE0304F22
S315080007A0B84201D1022719E02E4FB84201D10327DA
S315080007B014E02D4FB84201D104270FE02B4FB84261
S315080007C001D105270AE02A4FB84201D1062705E0DC
S315080007D0284FB84201D1072700E0082707FA08F78B
S315080007E02743CCF80878DAF800405746D1F804C011
S315080007F09C435FEACC2C00D51C433C60DBF80040E8
S315080008005F46D1F804C09C435FEA8C2C00D51C4394
S315080008103C60DEF800407746D1F804C09C435FEAA6
S315080008208C3C00D51C433C60084F083F3C68D1F817
S3150800083004C09C435FEACC3C00D51C433C60521C78
S31508000840102AFFF42FAFBDE8F88F0000083C0140DE
S3150800085044380240003001400000024000040240D3
S3150800086000080240000C024000100240001402403A
S3150800087000180240001C02400AB181617047090451
S31508000880FBE7000001488068704700000C00002064
S315080008900248816802781144816070470C00002084
S315080008A00B4810B5016841F400710160016841F414
S315080008B080610160016841F480710160032000F0E5
S315080008C06FF80F2000F006F800F024F8002010BD9D
S315080008D0003C024070B50D4D04464FF47A712878F5
S315080008E0B1FBF0F00A490968B1FBF0F000F00AFB29
S315080008F048B9102C07D200222146501E00F030F8C5
S3150800090000206C6070BD012070BD00000C00002046
S31508000910080000200A4808B5016841F480410160D2
S31508000920006800F4804000900548001F016841F007
S3150800093080510160006800F08050009008BD0000FA
S3150800094044380240002809DB00F01F0201219140CB
S315080009504009800000F1E020C0F80011704700004F
S31508000960F0B40E4B1B680C46C3F30223C3F107050C
S31508000970042D00D90425191D072901D2002300E0FA
S31508000980DB1E012606FA05F1491E214099409E40C4
S31508000990761E16403143F0BC00F0FABF0CED00E0BD
S315080009A0064900F0070208684FF6FF03184040EAB8
S315080009B00220034A10430860704700000CED00E06F
S315080009C00000FA052DE9F0470E46050065D0DFF868
S315080009D01481D8F80000F7B200F00700B04207D239
S315080009E088F80070D8F8000000F00700B04254D12B
S315080009F028683D4C810712D5400703D5206840F486
S31508000A00E05020602878000703D5206840F460404D
S31508000A1020602068A96820F0F00008432060287844
S31508000A20C0072DD0304968680839012812D0022835
S31508000A3013D0032811D00968890700292DDA2168FF
S31508000A4021F0030101432160FFF71CFF814641F2B3
S31508000A50883A0EE009688903EFE709688901ECE737
S31508000A60FFF710FFA0EB0901514502D90320BDE8A5
S31508000A70F0872068696800F00C00B0EB810FEFD1B1
S31508000A80D8F80010404601F00701B14207D90770AF
S31508000A90006800F00700B04201D00120E7E7287897
S31508000AA0400705D52068E96820F4E050084320602F
S31508000AB02878000706D52068296920F4604040EAAE
S31508000AC0C100206000F038F82168084AC1F3031114
S31508000AD0515CC8400649086006480068FFF7FAFEF8
S31508000AE00020C4E7003C024008380240E619000826
S31508000AF0080000201000002004480549006809681D
S31508000B00044AC1F38221515CC8407047080000209E
S31508000B1008380240F61900080448054900680968BB
S31508000B20044AC1F34231515CC840704708000020AE
S31508000B3008380240F6190008154810B5006810F084
S31508000B400C02144813D04110042A0FD0082A0ED1DB
S31508000B500F4C241F2268236802F03F025B0207D568
S31508000B602068C0F38810A0FB010106E0084610BD06
S31508000B702168C1F38811A1FB00010023FFF778FB68
S31508000B802168C1F30141491C4900B0FBF1F010BDD1
S31508000B90083802400024F4002DE9F84F04006ED00E
S31508000BA02078DFF84C93C007A9F104054AD009F16B
S31508000BB004000168C1F38101012908D00068C0F367
S31508000BC0810002280AD1D9F80000400206D5286813
S31508000BD0800337D560680028E1D033E06068B0F557
S31508000BE0803F10D0B0F5A02F286810D020F48030B0
S31508000BF02860286820F4802028606068A8B1FFF77C
S31508000C0041FE06460DE0286840F48030F4E740F4DB
S31508000C1080202860F7E700BFFFF734FE801B6428B2
S31508000C2073D828688003F7D50CE0FFF72BFE064635
S31508000C3005E000BFFFF726FE801B6428F0D8286869
S31508000C408003F7D42078DFF8AC8280074FF0000ADB
S31508000C503ED5A748001D016811F00C0F08D00068A2
S31508000C60C0F3810002280BD1D9F80000400207D44E
S31508000C702868800716D5E068012800D112E033E11C
S31508000C80E068B8B10120C8F80000FFF7FBFD06468A
S31508000C9005E000BFFFF7F6FD801B0228C0D82868CC
S31508000CA08007F7D52868216920F0F80040EAC100D6
S31508000CB028600DE0C8F800A0FFF7E4FD064604E04A
S31508000CC0FFF7E0FD801B02281FD828688007F7D4A5
S31508000CD02078000722D5864F87486169703771B139
S31508000CE001210160FFF7CEFD064604E0FFF7CAFDC5
S31508000CF0801B022809D838688007F7D50EE0C0F8A7
S31508000D0000A0FFF7BFFD064605E082E0FFF7BAFD43
S31508000D10801B02287DD838688007F7D420784007DA
S31508000D2068D5DFF8CCB100270BF13C0BDBF80000E7
S31508000D30C0000BD4DBF8001041F08051CBF800104E
S31508000D40DBF80000012700F0805000906B4E3068F9
S31508000D50C00510D4306840F480703060FFF792FD0B
S31508000D60009005E0FFF78EFD0099401A022850D83A
S31508000D703068C005F6D55E4EA0686C3601280FD0DF
S31508000D800528306810D020F001003060306820F067
S31508000D9004003060A068B8B1FFF774FD00900FE05A
S31508000DA0306840F00100F4E740F004003060F7E7EF
S31508000DB0FFF768FD0099411A41F28830814266D8EA
S31508000DC030688007F4D50EE0FFF75CFD009007E079
S31508000DD0FFF758FD0099411A41F28830814256D8EA
S31508000DE030688007F4D42FB1DBF8001021F0805169
S31508000DF0CBF80010A069C8B33D49091D0968C1F3BD
S31508000E00810102294AD00228504607D0C8F8600056
S31508000E1000E03CE0FFF736FD04463BE04746C8F8ED
S31508000E206000FFF72FFD064605E000BFFFF72AFD25
S31508000E30801B02282BD828688001F7D4D4E907013B
S31508000E400843A16A2E4A490802EB0141626A41EA4F
S31508000E508211084394F82C1040EA0161C9F8001081
S31508000E6001203866FFF70EFD044606E03EE000BFA7
S31508000E70FFF708FD001B022809D828688001F7D566
S31508000E8034E000BFFFF7FEFC001B022802D903204E
S31508000E90BDE8F88F28688001F4D427E00128F7D048
S31508000EA0D9F80000E26900F4800191421CD1226A57
S31508000EB000F03F01914217D147F6C071626A0140BE
S31508000EC0B1EB821F10D1A26A4FF0FF3300F4403114
S31508000ED003EB5202B1EB024F06D194F82C1000F046
S31508000EE07060B0EB016F01D00120D1E70020CFE799
S31508000EF00438024000004742800E47420070004016
S31508000F000000FFFF10B5401EB0F1807F01D301201D
S31508000F1010BD4FF0E02460610F21601700F038FD26
S31508000F200020A06107202061002010BD704770478F
S31508000F3070B590F83C20012A32D0012480F83C4054
S31508000F40022280F83D2003685A689D6822F07006E0
S31508000F500A6832435A60134B02689A4214D0B2F1B7
S31508000F60804F11D0104B9A420ED0104B9A420BD09C
S31508000F700F4B9A4208D00F4B9A4205D00E4B9A4215
S31508000F8002D00E4B9A4204D1496825F080031943D2
S31508000F90916080F83D40002180F83C10084670BDFD
S31508000FA0022070BD00000140000400400008004017
S31508000FB0000C0040000401400040014000180040B9
S31508000FC010B5040003D094F83D0010B107E00120E5
S31508000FD010BD002084F83C00204600F01FF80220CF
S31508000FE084F83D00211D206800F04EFB012084F89E
S31508000FF0460084F83E0084F83F0084F8400084F8F0
S31508001000410084F8420084F8430084F8440084F8D8
S31508001010450084F83D00002010BD000008B50068B2
S31508001020B0F1804F12D10A48016841F00101016010
S315080010300068002200F00100009001211C20FFF743
S315080010408FFCBDE808401C20FFF77CBC08BD0000EB
S315080010504038024090F83D10012901D00120704720
S31508001060022180F83D100168CA6842F00102CA6090
S3150800107000681149884214D0B0F1804F11D00F4949
S3150800108088420ED00E4988420BD00E49884208D0B5
S315080010900D49884205D00D49884202D00C4988423C
S315080010A004D1816801F00701062903D0016841F0DF
S315080010B00101016000207047000001400004004063
S315080010C000080040000C00400004014000400140B8
S315080010D00018004070B5044690F83C000025012829
S315080010E017D0012684F83C60022084F83D00206869
S315080010F0826822F0770222F47F42826008685028CC
S3150800110038D00DDC20284FD005DC90B3102811D13B
S315080011104AE0022070BD302846D040280AD13BE07C
S3150800112060282FD070280DD0B0F5805F03D0B0F5B9
S31508001130005F12D0012584F83D60002084F83C0049
S31508001140284670BDCB68D1E90121206800F004FB70
S315080011502068816841F0770109E0CB68D1E901216F
S31508001160206800F0F9FA2068816841F480418160BE
S31508001170E1E719E0CA684968206800F0FFFA5021DB
S31508001180206806E0CA684968206800F008FB602104
S31508001190206800F0EBFACEE7CA684968206800F0D4
S315080011A0EDFA40212068F4E7226801461046F0E788
S315080011B070472DE9F04104460068C66805694FF096
S315080011C00007A90713D5B10711D5F91E016101203A
S315080011D02077206880698007204602D0FFF7E8FF5D
S315080011E004E000F07EF8204600F07CF827776807D0
S315080011F016D5700714D521686FF00400086102201F
S3150800120020772068806910F4407F204602D0FFF7D7
S31508001210CFFF04E000F065F8204600F063F8277772
S31508001220280715D5300713D521686FF0080008611F
S31508001230042020772068C0698007204602D0FFF77F
S31508001240B7FF04E000F04DF8204600F04BF827778A
S31508001250E80616D5F00614D521686FF01000086167
S31508001260082020772068C06910F4407F204602D005
S31508001270FFF79EFF04E000F034F8204600F032F84D
S315080012802777E80708D0F00706D021686FF0010035
S315080012900861204600F028F8280608D5300606D545
S315080012A021686FF0800008612046FFF73FFE680658
S315080012B008D5700606D521686FF0400008612046FB
S315080012C000F026F8A8060AD5B00608D521686FF0FA
S315080012D0200008612046BDE8F041FFF728BEBDE8BA
S315080012E0F0817047704700000068B0F1804F0BD15D
S315080012F006480168491C0160B1F57A7F04D1416846
S31508001300491C416000210160704700000000002070
S31508001310704770B5040004D094F84100002510B158
S3150800132006E0012070BD84F84050204600F024F8FD
S31508001330242084F841002068C16821F40051C16066
S31508001340204600F065FA2068016921F490410161A0
S315080013502068416921F02A0141612068C16841F489
S315080013600051C1606564202084F8410084F8420079
S315080013706563002070BD000010B586B004461421D0
S315080013806846FFF790F813492068884220D112482A
S315080013900021026842F020020260006800F0200086
S315080013A005900D481438026842F00402026000688D
S315080013B000F004000590C02000900220CDE901014C
S315080013C0032003900820049069460448FFF75CF957
S315080013D006B010BD0014014044380240000802401F
S315080013E02DE9F843044690F84100984616460D46FE
S315080013F0202802D00220BDE8F88385B17EB10020FE
S315080014006064212084F84100FFF73CFAA6848146EF
S31508001410E684A0682027B0F5805F02D003E00120AB
S31508001420E9E7206910B12E4600250EE000260CE0FB
S315080014308021204600F072FAA8B9C6B116F8010B49
S3150800144021684860E08C401EE084E08C4B464FF0F3
S315080014500002CDF800800028EAD14FF0400120466E
S3150800146000F05CFA40B184F841700320C3E735F810
S31508001470020BC0F30800E3E784F841700020BAE7DE
S31508001480FEE7000030B587B014216846FFF70BF871
S3150800149015480024016841F004010160016801F063
S315080014A004010591016841F080010160016801F0BD
S315080014B080010591016841F00101016000680B4D4A
S315080014C000F001000590012202212846FFF7D4F911
S315080014D0022000900120CDE90104694628460394BC
S315080014E0FFF7D2F807B030BD30380240000002409E
S315080014F010B586B00024164800940194029403940B
S3150800150004944FF080410594016042F2CF01C0E98E
S3150800151001140A21C0E903148461FFF751FD08B1DB
S31508001520FFF79DF84FF48050009069460848FFF78A
S31508001530D1FD08B1FFF793F8049404A9044805946B
S31508001540FFF7F6FC002801D0FFF789F806B010BDB2
S31508001550180000200C4810B50A4901604FF4E13123
S315080015604160002181600C22C160C0E904128161DA
S31508001570C161FFF7CEFE002803D0BDE81040FFF793
S315080015806EB810BD0014014060000020FEE70000A0
S315080015901FB5024609A16846FEF7E2FE6846FEF751
S315080015A063FF82B24FF0FF3369460648FFF718FF1C
S315080015B04FF47A70FFF756F81FBD000025750D0A1F
S315080015C00000000060000020FEE770477047FFF744
S315080015D05FB9000030B593B030216846FEF763FF67
S315080015E014210CA8FEF75FFF1E480025016841F08C
S315080015F080510160006800F0805011901A48016817
S3150800160041F4804101600068022400F48040119092
S3150800161001200090000401908001CDE906400820D1
S3150800162008904FF4A870CDE9090404200B90684689
S31508001630FFF7B2FA08B172B6FEE70CA90F2081E8E7
S3150800164031004FF4A0500F904FF4805010900521B0
S315080016500CA8FFF7B7F9002801D072B6FEE713B059
S3150800166030BD000040380240007000400248016862
S3150800167041F470010160704788ED00E00148FFF70A
S3150800168098BD000018000020F0B50268274B284DC9
S31508001690284E294F294C4FF0804C984209D0604576
S315080016A007D0A84205D0B04203D0B84201D0A04224
S315080016B004D122F0700E4A6842EA0E0298421BD004
S315080016C0604519D0A84217D0B04215D0B84213D0F9
S315080016D0A04211D01A4DA8420ED01A4DA8420BD0DE
S315080016E0194DA84208D0194DA84205D0184DA84250
S315080016F002D0184DA84203D122F44075CA682A437D
S315080017004D6922F080022A438D68C5620D6885629C
S31508001710984201D0A04201D109690163016841F0EC
S3150800172004010160012141610260F0BD0000014031
S315080017300004004000080040000C0040000401407E
S3150800174000400140004401400048014000180040A4
S31508001750001C00400020004010B5846842EA0322BD
S3150800176024F47F440A432243826010BD826822F033
S3150800177070020A4342F007018160704710B5036A98
S31508001780046A24F001040462846924F0F00444EA3B
S31508001790021423F00A020A438461026210BD10B5DE
S315080017A0036A046A24F010040462846923F0A0031F
S315080017B024F4704444EA023243EA01118261016268
S315080017C010BD01680C3151E8002F22F4907241E8EF
S315080017D00023002BF5D10168143151E8002F22F0BF
S315080017E0010241E80023002BF5D1016B012909D13B
S315080017F001680C3151E8002F22F0100241E800235D
S31508001800002BF5D1202180F8421000210163704792
S3150800181070B5044600680169E26821F44051114335
S3150800182001612169A068E2690843616911430843B7
S315080018302168CA6849F20C639A430243CA60206861
S315080018404169A26921F44071114341613149206817
S31508001850884202D03049884202D1FFF75DF901E09B
S31508001860FFF74AF9E2690023192164253226B2F501
S31508001870004F626828D0A0FB0101930F9200FEF783
S31508001880F7FC0146B0FBF5F06FF01802504301EB88
S31508001890800006EB0010B0FBF5F000F0F002B1FB9B
S315080018A0F5F002EB0012B1FBF5F06FF018035843A0
S315080018B001EB800006EB0010B0FBF5F000F00F001E
S315080018C021681044886070BDA0FB010192185B4135
S315080018D0FEF7CEFC0146B0FBF5F00201B1FBF5F0D0
S315080018E06FF01803584301EB800006EBC000B0FB0D
S315080018F0F5F000F0F80002EB4002B1FBF5F05843B2
S3150800190001EB800006EBC000B0FBF5F000F0070025
S31508001910D6E7000000100140001401402DE9F84305
S31508001920984617460D460446089E24E0701C22D0A9
S31508001930FEF7A8FFA0EB0800B0421AD8CEB120687F
S31508001940C168490717D5802D15D0402D13D00168D9
S31508001950C94309070FD4016800254068009020464E
S31508001960FFF72FFF0820606484F840500120BDE887
S31508001970F8830320FBE72068006835EA000004D0F6
S315080019800020B842D2D00020F1E70120F9E7FEE7AF
S315080019900907090E002804DB00F1E02080F800148E
S315080019A0704700F00F0000F1E02080F8141D704722
S315080019B0FEF776FFFFF70EFEFFF764FDFFF7CAFD99
S315080019C0FFF796FD0348FFF745FB034C6068FFF7F2
S315080019D0DFFDFBE718000020000000204FF04070F4
S315080019E0E1EE100A70470000000000000000010246
S315080019F003040607080900000000010203040000AA
S31508001A00201A00080000002018000000C401000881
S31508001A10381A000818000020F0060000E001000847
S31508001A2000000000000000000024F400010000008F
S30D08001A30100000000000000090
S7050800018968
